{
  "contractName": "DapTube",
  "abi": [
    {
      "constant": true,
      "inputs": [],
      "name": "name",
      "outputs": [
        {
          "internalType": "string",
          "name": "",
          "type": "string"
        }
      ],
      "payable": false,
      "stateMutability": "view",
      "type": "function"
    },
    {
      "constant": true,
      "inputs": [],
      "name": "videoCount",
      "outputs": [
        {
          "internalType": "uint256",
          "name": "",
          "type": "uint256"
        }
      ],
      "payable": false,
      "stateMutability": "view",
      "type": "function"
    },
    {
      "constant": true,
      "inputs": [
        {
          "internalType": "uint256",
          "name": "",
          "type": "uint256"
        }
      ],
      "name": "videos",
      "outputs": [
        {
          "internalType": "uint256",
          "name": "id",
          "type": "uint256"
        },
        {
          "internalType": "string",
          "name": "src",
          "type": "string"
        },
        {
          "internalType": "string",
          "name": "thumbnail",
          "type": "string"
        },
        {
          "internalType": "string",
          "name": "title",
          "type": "string"
        },
        {
          "internalType": "string",
          "name": "description",
          "type": "string"
        },
        {
          "internalType": "string",
          "name": "tags",
          "type": "string"
        },
        {
          "internalType": "string",
          "name": "name",
          "type": "string"
        },
        {
          "internalType": "string",
          "name": "timestamp",
          "type": "string"
        },
        {
          "internalType": "string",
          "name": "videoLength",
          "type": "string"
        },
        {
          "internalType": "address",
          "name": "owner",
          "type": "address"
        }
      ],
      "payable": false,
      "stateMutability": "view",
      "type": "function"
    },
    {
      "constant": false,
      "inputs": [
        {
          "internalType": "string",
          "name": "_src",
          "type": "string"
        },
        {
          "internalType": "string",
          "name": "_thumbnail",
          "type": "string"
        },
        {
          "internalType": "string",
          "name": "_title",
          "type": "string"
        },
        {
          "internalType": "string",
          "name": "_description",
          "type": "string"
        },
        {
          "internalType": "string",
          "name": "_tags",
          "type": "string"
        },
        {
          "internalType": "string",
          "name": "_name",
          "type": "string"
        },
        {
          "internalType": "string",
          "name": "_timestamp",
          "type": "string"
        },
        {
          "internalType": "string",
          "name": "_videoLength",
          "type": "string"
        }
      ],
      "name": "addVideo",
      "outputs": [],
      "payable": false,
      "stateMutability": "nonpayable",
      "type": "function"
    }
  ],
  "bytecode": "0x6080604052600080556040518060400160405280600781526020017f446170547562650000000000000000000000000000000000000000000000000081525060019080519060200190610053929190610066565b5034801561006057600080fd5b5061010b565b828054600181600116156101000203166002900490600052602060002090601f016020900481019282601f106100a757805160ff19168380011785556100d5565b828001600101855582156100d5579182015b828111156100d45782518255916020019190600101906100b9565b5b5090506100e291906100e6565b5090565b61010891905b808211156101045760008160009055506001016100ec565b5090565b90565b610df48061011a6000396000f3fe608060405234801561001057600080fd5b506004361061004c5760003560e01c806306fdde0314610051578063c61b5f4c1461006f578063db91198d1461008d578063e6821bf5146100a9575b600080fd5b6100596100e2565b6040516100669190610b85565b60405180910390f35b610077610180565b6040516100849190610ba7565b60405180910390f35b6100a760048036036100a29190810190610993565b610186565b005b6100c360048036036100be9190810190610b05565b610351565b6040516100d99a99989796959493929190610bc2565b60405180910390f35b60018054600181600116156101000203166002900480601f0160208091040260200160405190810160405280929190818152602001828054600181600116156101000203166002900480156101785780601f1061014d57610100808354040283529160200191610178565b820191906000526020600020905b81548152906001019060200180831161015b57829003601f168201915b505050505081565b60005481565b600080815480929190600101919050555060405180610140016040528060005481526020018981526020018881526020018781526020018681526020018581526020018481526020018381526020018281526020013373ffffffffffffffffffffffffffffffffffffffff16815250600260008054815260200190815260200160002060008201518160000155602082015181600101908051906020019061022f929190610885565b50604082015181600201908051906020019061024c929190610885565b506060820151816003019080519060200190610269929190610885565b506080820151816004019080519060200190610286929190610885565b5060a08201518160050190805190602001906102a3929190610885565b5060c08201518160060190805190602001906102c0929190610885565b5060e08201518160070190805190602001906102dd929190610885565b506101008201518160080190805190602001906102fb929190610885565b506101208201518160090160006101000a81548173ffffffffffffffffffffffffffffffffffffffff021916908373ffffffffffffffffffffffffffffffffffffffff1602179055509050505050505050505050565b6002602052806000526040600020600091509050806000015490806001018054600181600116156101000203166002900480601f0160208091040260200160405190810160405280929190818152602001828054600181600116156101000203166002900480156104035780601f106103d857610100808354040283529160200191610403565b820191906000526020600020905b8154815290600101906020018083116103e657829003601f168201915b505050505090806002018054600181600116156101000203166002900480601f0160208091040260200160405190810160405280929190818152602001828054600181600116156101000203166002900480156104a15780601f10610476576101008083540402835291602001916104a1565b820191906000526020600020905b81548152906001019060200180831161048457829003601f168201915b505050505090806003018054600181600116156101000203166002900480601f01602080910402602001604051908101604052809291908181526020018280546001816001161561010002031660029004801561053f5780601f106105145761010080835404028352916020019161053f565b820191906000526020600020905b81548152906001019060200180831161052257829003601f168201915b505050505090806004018054600181600116156101000203166002900480601f0160208091040260200160405190810160405280929190818152602001828054600181600116156101000203166002900480156105dd5780601f106105b2576101008083540402835291602001916105dd565b820191906000526020600020905b8154815290600101906020018083116105c057829003601f168201915b505050505090806005018054600181600116156101000203166002900480601f01602080910402602001604051908101604052809291908181526020018280546001816001161561010002031660029004801561067b5780601f106106505761010080835404028352916020019161067b565b820191906000526020600020905b81548152906001019060200180831161065e57829003601f168201915b505050505090806006018054600181600116156101000203166002900480601f0160208091040260200160405190810160405280929190818152602001828054600181600116156101000203166002900480156107195780601f106106ee57610100808354040283529160200191610719565b820191906000526020600020905b8154815290600101906020018083116106fc57829003601f168201915b505050505090806007018054600181600116156101000203166002900480601f0160208091040260200160405190810160405280929190818152602001828054600181600116156101000203166002900480156107b75780601f1061078c576101008083540402835291602001916107b7565b820191906000526020600020905b81548152906001019060200180831161079a57829003601f168201915b505050505090806008018054600181600116156101000203166002900480601f0160208091040260200160405190810160405280929190818152602001828054600181600116156101000203166002900480156108555780601f1061082a57610100808354040283529160200191610855565b820191906000526020600020905b81548152906001019060200180831161083857829003601f168201915b5050505050908060090160009054906101000a900473ffffffffffffffffffffffffffffffffffffffff1690508a565b828054600181600116156101000203166002900490600052602060002090601f016020900481019282601f106108c657805160ff19168380011785556108f4565b828001600101855582156108f4579182015b828111156108f35782518255916020019190600101906108d8565b5b5090506109019190610905565b5090565b61092791905b8082111561092357600081600090555060010161090b565b5090565b90565b600082601f83011261093b57600080fd5b813561094e61094982610cc3565b610c96565b9150808252602083016020830185838301111561096a57600080fd5b610975838284610d47565b50505092915050565b60008135905061098d81610d9a565b92915050565b600080600080600080600080610100898b0312156109b057600080fd5b600089013567ffffffffffffffff8111156109ca57600080fd5b6109d68b828c0161092a565b985050602089013567ffffffffffffffff8111156109f357600080fd5b6109ff8b828c0161092a565b975050604089013567ffffffffffffffff811115610a1c57600080fd5b610a288b828c0161092a565b965050606089013567ffffffffffffffff811115610a4557600080fd5b610a518b828c0161092a565b955050608089013567ffffffffffffffff811115610a6e57600080fd5b610a7a8b828c0161092a565b94505060a089013567ffffffffffffffff811115610a9757600080fd5b610aa38b828c0161092a565b93505060c089013567ffffffffffffffff811115610ac057600080fd5b610acc8b828c0161092a565b92505060e089013567ffffffffffffffff811115610ae957600080fd5b610af58b828c0161092a565b9150509295985092959890939650565b600060208284031215610b1757600080fd5b6000610b258482850161097e565b91505092915050565b610b3781610d0b565b82525050565b6000610b4882610cef565b610b528185610cfa565b9350610b62818560208601610d56565b610b6b81610d89565b840191505092915050565b610b7f81610d3d565b82525050565b60006020820190508181036000830152610b9f8184610b3d565b905092915050565b6000602082019050610bbc6000830184610b76565b92915050565b600061014082019050610bd8600083018d610b76565b8181036020830152610bea818c610b3d565b90508181036040830152610bfe818b610b3d565b90508181036060830152610c12818a610b3d565b90508181036080830152610c268189610b3d565b905081810360a0830152610c3a8188610b3d565b905081810360c0830152610c4e8187610b3d565b905081810360e0830152610c628186610b3d565b9050818103610100830152610c778185610b3d565b9050610c87610120830184610b2e565b9b9a5050505050505050505050565b6000604051905081810181811067ffffffffffffffff82111715610cb957600080fd5b8060405250919050565b600067ffffffffffffffff821115610cda57600080fd5b601f19601f8301169050602081019050919050565b600081519050919050565b600082825260208201905092915050565b6000610d1682610d1d565b9050919050565b600073ffffffffffffffffffffffffffffffffffffffff82169050919050565b6000819050919050565b82818337600083830152505050565b60005b83811015610d74578082015181840152602081019050610d59565b83811115610d83576000848401525b50505050565b6000601f19601f8301169050919050565b610da381610d3d565b8114610dae57600080fd5b5056fea365627a7a72315820c6dc278dc85538e84dd41e592c122ff5ccf63bcb416dd2bac713fcc11312ec136c6578706572696d656e74616cf564736f6c63430005100040",
  "source": "pragma solidity ^0.5.0;\npragma experimental ABIEncoderV2;\n// pragma solidity ^0.8.0;\n\n\n// pragma solidity >=0.8.0;\n\ncontract DapTube {\n\n    uint public videoCount = 0;\n    string public name = 'DapTube';\n\n    mapping(uint => Video) public videos;\n\n    struct Video {\n        uint id;\n        string src;\n        string thumbnail;\n        string title;\n        string description;\n        string tags;\n        string name;\n        string timestamp;\n        string videoLength;\n        address owner;\n    }\n\n    function addVideo(string memory _src, string memory _thumbnail, string memory _title, string memory _description, string memory _tags, string memory _name, string memory _timestamp, string memory _videoLength) public {\n        videoCount++;\n\n        videos[videoCount] = Video(videoCount, _src, _thumbnail, _title, _description, _tags, _name,_timestamp, _videoLength, msg.sender);\n    }\n}",
  "sourcePath": "/Users/langfordquarshie/dapps/DTube/contracts/contracts/DapTube.sol",
  "compiler": {
    "name": "solc",
    "version": "0.5.16+commit.9c3226ce.Emscripten.clang"
  },
  "schemaVersion": "3.4.4",
  "updatedAt": "2022-01-04T10:25:11.231Z",
  "networkType": "ethereum",
  "devdoc": {
    "methods": {}
  },
  "userdoc": {
    "methods": {}
  }
}